:020000041000EA
:1000000000B5324B212058609868022188439860DF
:10001000D860186158612E4B002199600221596106
:100020000121F02299502B49196001219960352056
:1000300000F044F80222904214D00621196600F024
:1000400034F8196E01211966002018661A6600F04E
:100050002CF8196E196E196E052000F02FF8012189
:100060000842F9D1002199601B49196000215960AB
:100070001A491B48016001219960EB211966A021F2
:10008000196600F012F800219960164914480160C1
:100090000121996001BC002800D000471248134993
:1000A000086003C880F30888084703B5996A0420EC
:1000B0000142FBD001200142F8D103BD02B5186610
:1000C0001866FFF7F2FF186E186E02BD00000240BE
:1000D000000000180000070000035F00212200005C
:1000E000F4000018222000A00001001008ED00E03C
:1000F00000000000000000000000000074B24E7A12
:1001000000200420F7010010C3010010C5010010F9
:10011000C1010010C1010010C1010010C101001097
:10012000C1010010C1010010C1010010C701001081
:10013000C1010010C1010010C9010010CB01001065
:10014000CD010010CD010010CD010010CD01001037
:10015000CD010010CD010010CD010010CD01001027
:10016000CD010010CD010010CD010010CD01001017
:10017000CD010010CD010010CD010010CD01001007
:10018000CD010010CD010010CD010010CD010010F7
:10019000CD010010CD010010CD010010CD010010E7
:1001A000CD010010CD010010CD010010CD010010D7
:1001B000CD010010CD010010CD010010CD010010C7
:1001C00000BE00BE00BE00BE00BE00BEEFF3058054
:1001D000103800BEF2EB8871A44F0010D84F001009
:1001E0003802001090A31AE71E481F49086006C88D
:1001F00081F3088810471D480068002801D019487D
:10020000F3E70DA40ECC002902D000F012F8F9E7B4
:100210001749184A002000E001C19142FCD116495B
:100220008847164988471649884700BEFDE701C937
:1002300001C29A42FBD37047D84F0010C000002083
:1002400078100020905F00100000042000000420BF
:10025000905F001000100420001004200000000037
:10026000704700000000000008ED00E0000000D032
:1002700078100020841F00202D1D0010D5020010D2
:10028000251D0010F8B5C04606480749091A8B100D
:10029000C90FC91810B5491003D0044B002B00D06A
:1002A000984710BD78100020781000200000000052
:1002B000054B10B5002B03D00449054800E000BFF2
:1002C000FFF7E2FF10BDC04600000000181F00202D
:1002D0000C4B001070B5D0258026062401F032FEAC
:1002E0002D061920B60400F02DF86E62FA206E611A
:1002F000800000F01BFFFA20AE618000013C00F09E
:1003000015FF002CF2D10021002001F0D1FAC046E7
:10031000094A83009A1810B514684022544080326C
:100320002240064CC000A44663441A60044B9C461D
:100330006044416010BDC04604C0014004D001408B
:10034000004001400123D022834012069362936152
:10035000094A83009A1811684022514080320A40AD
:100360000649C0008C4663441A60054B9C46052331
:10037000604443607047C04604C0014004D001405F
:10038000004001408023DB051868000F7047C0461D
:100390000FB400B5084883B001F026FE049B002B83
:1003A00007D005A91800019101F0A2FC034801F053
:1003B0001BFE012001F0B4FC384B0010484B00102C
:1003C00070B5EFF3108C72B60D4D2B68002BFCD07E
:1003D000BFF35F8F0724CB08C618C05C01230C4015
:1003E000A3401C000440034207D118433070BFF300
:1003F0005F8F2C608CF3108870BD1000FFF7C8FF72
:100400002C0100D0F8B54746CE46884680B5EFF3BC
:10041000108C72B61C4D2C68002CFCD0BFF35F8F83
:100420009A4222D807210126894602E001329342EE
:1004300018D34D4637001540AF40D4080119045D6C
:100440002742F3D110003C430C70BFF35F8F0022B2
:100450000D4B1A608CF3108800280EDBC0BCB94627
:10046000B046F8BD01204042EFE7BFF35F8F0023A5
:100470002B608CF31088012040424346002BEDD0C6
:100480000898FFF785FFC0462C0100D0044A107879
:10049000431CDBB2172B00D9102313707047C046E2
:1004A000980F002010B5064B064C82B00100009357
:1004B00018221F232000FFF7A5FF02B010BDC04681
:1004C0004C4B0010A81A00200021044B044ABFF333
:1004D0005F8F02C39342FAD17047C046000100D03B
:1004E000800100D0054B064A1360064A1360536032
:1004F0009360D36013615361936170478080808003
:1005000000E400E004E400E01F2318401E3B8340A9
:10051000002905D0C021044A490053501360704798
:10052000802201498B50FAE700E100E0012282407D
:10053000034B1B6813405A1E9341D8B27047C04604
:1005400000E100E001238340014A13607047C04688
:1005500000E200E0064B10309B688000C358054A5B
:1005600000209B1A2F229A424041C0B27047C046D9
:1005700000ED00E09C0F002070B50D00EFF3108639
:1005800072B60F4A1368002BFCD0BFF35F8F0D4B80
:1005900010309B6884001B590B4A934203D09D4244
:1005A00001D001F0BBF9074B9B681D51BFF35F8F72
:1005B000BFF35F8F0022024B1A6086F3108870BD74
:1005C000240100D000ED00E0CD010010F0B5574649
:1005D0004E46DE464546E0B585B006000091170060
:1005E000EFF3108B72B66A4A1368002BFCD0BFF38E
:1005F0005F8F0025674B5D579A46002D00DAA9E012
:100600006B00654C01935B199B009846A146C14461
:100610004B4652469B7910361370604BB6009B6870
:1006200099590B1B2F2B33D95D4B994200D0ACE06D
:10063000019B42469C465B4B6544AD0063535A4B5D
:100640000232A218043B9B1A1B05584A5B0D651920
:1006500013436B80564B0121AB80FF23AB71009B92
:10066000EF71AB604B460B4319004C4B9B689951A3
:10067000BFF35F8FBFF35F8F0022454B1A608BF390
:10068000108805B0F0BCBB46B246A946A046F0BDF6
:1006900001200A008243D3798C46BB4231D84546BB
:1006A000130044491B1B5B415943090D3D4B6353E8
:1006B0003D4B02356519043B5B1B1B053B4D5B0D38
:1006C0002B43AA464D466B800425AC465546E04474
:1006D000131F44441B1B1B055B0D1D434B469971A7
:1006E00000999D8099604946DF71334B0143136047
:1006F000BBE75800C01880002018C179B9422FD933
:1007000002000623D356002BF3DA02932B4B6146EB
:100710000393131D9A4604235B429C46E1445046D2
:100720004B461B1A1B055B0D9C46204B957198464A
:100730006346404603439380019B5A199200039BF2
:10074000A418A380029B1C4AA371009B2260E7713E
:10075000A3608AE701F0E2F8002553465D574FE7B2
:10076000908802934005131D9A46031561469C46E6
:100770004046D444634604302018181AE02300058C
:10078000400D1B0218430390C5E701F0C7F84FE77F
:10079000240100D07D1F00209C0F002000ED00E010
:1007A000CD01001000A1FFFFCC0F002000E0FFFFF3
:1007B00001BDFFFFAAAA00000148804701BD00005B
:1007C000F0B5DE4657464E464546E0B50C0083B0D0
:1007D000EFF3108872B6634A1368002BFCD0BFF3A6
:1007E0005F8F614B61499A68030010339F00D559B0
:1007F00001938D4243D0A54254D05D4EAA1B2F2AAF
:100800003DD85C4B9B461B68994601231A009C46C9
:1008100082404B4613401F22994663460240934054
:100820009A4680225B4650469850BFF35F8FEFF3A5
:1008300005839B46002B37D0019B5B4501D001F01F
:100840006DF801232A009A439068844208D176E02B
:100850004B005B189B00F3189868844236D01A004E
:10086000062151560029F3DA844254D04B46002B1E
:1008700027D0C02251463F4B5200995019603A4B45
:100880009B68DD51BFF35F8FBFF35F8F0022354B55
:100890001A6088F3108803B0F0BCBB46B246A94684
:1008A000A046F0BD0D00EAE72A0063469A4390682F
:1008B0008442D5D106201056130000280ADA0D0014
:1008C00031E0802351462B4AD150D8E706201856F4
:1008D000002821DB42001118890074188B46A1689A
:1008E0009960E179D971062161569971002924DB5B
:1008F000A488F11A640524155C44091909051E4CE5
:10090000490D2143998013181C4A9B001178F31854
:1009100099711070AAE713005946002914D1FF31CC
:1009200091711749918015490A789A71154A9B1B54
:100930005B415A43120D0A7098E71149E2E706201D
:10094000105613000028C5DA0F4A1049D21A083A87
:100950005002400D014399800D4952080A43DA8044
:1009600084E7C046240100D000ED00E0CD01001076
:100970009C0F002000E100E000E0FFFF7D1F002051
:1009800001BDFFFFAAAA0000D60F002000F0FFFF64
:1009900000F8FFFF70B501240443EFF30581EFF386
:1009A000108C72B6214A1368002BFCD0BFF35F8F06
:1009B0001F4B05001F4AED1A6D416A43120D1E4D73
:1009C0008900AE6852B27658A6421CD0062159560C
:1009D00091421CD012215956914222D01E215956C3
:1009E000914220D02A2159560324914210D0134B12
:1009F00019781A708171BFF35F8F00220B4B1A6058
:100A00008CF3108870BDAB680D4C5C50EFE7002490
:100A10006100091989005B18FF21997109499980C2
:100A2000E5E70124F4E70224F2E7C046240100D000
:100A30009C0F0020AAAA000000ED00E07D1F00200E
:100A4000CD01001001BDFFFF10B5084B084C82B06E
:100A500001000093002205232000FFF7D3FC0028AB
:100A600001DB1F23181A02B010BDC046684B0010EE
:100A7000811F0020024B9C46614489000160704741
:100A80004000003470B5114C114DAC420FD2FF261E
:100A90002368002B0CD0FFF7F9FC01002000FFF7C2
:100AA000E9FFA680BFF35F8F0834AC42F0D370BD7E
:100AB000FFF7ECFC01002000FFF7DCFF2671BFF31D
:100AC0005F8F0834AC42E3D3F1E7C04670100020DA
:100AD0007810002010B50400FFF7D8FC01002000BA
:100AE000FFF7C8FFFF232371BFF35F8F10BDC04620
:100AF00010B504000120FFF7D5FC034BC3189B0081
:100B00002360BFF35F8F10BD40000034034B9C4651
:100B1000614489000160BFF35F8F7047400000347B
:100B20000A4B1968EFF3108072B60A68002AFCD0ED
:100B3000BFF35F8F1B68BFF35F8F00221A6080F3E3
:100B4000108840BF002000217047C046541F00207D
:100B5000F0B5DE4657464E464546E0B587B0EFF362
:100B60000583032201251A40954091008846A94635
:100B7000B34B03925C58B34B1D60B34B04934B468D
:100B8000B24843630823E55E002D37DAA3881BB221
:100B9000002B00DBADE0A379002B00D0EEE00823B2
:100BA000E05E002820DB430062691B18DB00D318DD
:100BB0009E68DD68731C00D111E1A4480100414426
:100BC000826A0B69B71A9B1A9F4215D30123026AE6
:100BD000039883401A420FD09C4800F0B5FB8D4229
:100BE00002DCCCD18642CAD940BF07B0F0BCBB46BC
:100BF000B246A946A046F0BD0E61EDE762696B0002
:100C000092465B19DB009A4453469E68DF6800F009
:100C10009BFB8F42BADC00D103E1002F00DAE8E051
:100C20005246534652691B699346049A934200D137
:100C3000D9E052460821605E5288000459461043AC
:100C40009847009001910099019A0B0010001343FE
:100C500000D1CEE013000A00B61A9F41002806DB3F
:100C60007A4800F071FB009E019F36184F415346B1
:100C70009E60DF6000229A5E002A00DA86E7530059
:100C800099186069C900411802938B68C9689B462E
:100C9000B94200DD7AE702D1B34200D976E70823F2
:100CA0009C46A444059565462281A446029B2C00DF
:100CB00006E053009918C90041188D68C968AB4611
:100CC0009B18DB00C318B94206DC00D1B3E01C005E
:100CD0000023E25E002AECDA230064469C46534679
:100CE0001A806346059D1D80A3881BB2002B00DA85
:100CF00051E72269EFF3108172B61368002BFCD024
:100D0000BFF35F8F0123A7885B42A3803FB22369B3
:100D1000BFF35F8F00221A6081F31088002F00DA82
:100D200039E72300083322009A4666697B00DB1905
:100D3000DB00F318996850468C460824115FDD6883
:100D4000002910DB029306E0AB4244D00023E15EB1
:100D50002000002906DB4C006418E4003419E36825
:100D6000AB42F1DD029B078000201F5E1980002F3F
:100D7000DCDA1400A379002B00D110E70023A37163
:100D800026000823E15E08364B1C00D12CE7080042
:100D9000A246656902E03E004B1C1AD04B005B186E
:100DA000DB00EF180A008C46E95E7B881BB2002B43
:100DB000F1DA01235B42DC17BB60FC60824205D0A4
:100DC000534631801B893B8053461A8160464B1C39
:100DD000E4D15446E5E6A3686345B7D9C2E76B1C86
:100DE00000D0EAE6F8E65B4658461B6998470028BB
:100DF0001BD153461B8822692381EFF3108372B6FF
:100E000011680029FCD0BFF35F8F514662880A80C9
:100E100022696580BFF35F8F0021116083F3108822
:100E2000B4E6864200D8F8E6B0E65B461A685B682E
:100E30000092019307E7B34500D848E74CE7C04666
:100E4000381F00203C700540510B00100040054049
:100E500070B52E4C2569002D04D00A212C48FFF7CF
:100E600009FE70BD2B4E0321300000F063FAE660EE
:100E7000FFF70CFB284B03229C46D02322701B0655
:100E80001B6801216370254B6044A3600F23800021
:100E900020610220638063694942A1801980023188
:100EA000198647311D83585218315A5275325C39B0
:100EB000995218320131995218320131995218322F
:100EC00001319952083518329D5202311832995227
:100ED00018320131995218320131995218320131C8
:100EE00099521832013199521832013199520C4BF2
:100EF0000C49DC6001303562FFF73EFB0121032025
:100F0000FFF702FB084B1D60A7E7C046E40F002077
:100F1000541F00200040054040000034FFFF100037
:100F2000381F0020510B0010386005400048704702
:100F3000E40F0020F8B51F0008AB1B780400160072
:100F4000002B08D100F008FA32003B00121A8B4146
:100F5000002B00DA52E02269EFF3108072B61368BA
:100F6000002BFCD0BFF35F8F0223E15E63694A0070
:100F70005218D2009B182269002936DB1D88658033
:100F8000BFF35F8F0025156080F31088069A9E607E
:100F9000DF601A61079A5A615A8801325204520C72
:100FA000101C002A1FD082B2588008041043266902
:100FB000EFF3108772B63268002AFCD0BFF35F8F60
:100FC000A2881A80A1802369BFF35F8F00221A6074
:100FD00087F310880A4923788C4601329A40E368E7
:100FE00063441A60F8BD0120DDE7BFF35F8F002383
:100FF000136080F3108801204042F3E70020F1E7FE
:101000003C20000070B501000469EFF3108C72B64B
:1010100020680028FCD0BFF35F8F02200D5E4C6972
:1010200068004019C00024180869002D36DB2688A6
:101030004E80BFF35F8F002606608CF31088E3605C
:1010400063880498013320615B0405985B0CA260FF
:1010500060611A1C002B1FD093B2280462801843D1
:101060000A69EFF3108C72B61368002BFCD0BFF343
:101070005F8F8B8823808D800B69BFF35F8F002289
:101080001A608CF310880B7801329A40CB680849BB
:101090008C4663441A6070BD0122DDE7BFF35F8FA9
:1010A000002303608CF3108801204042F3E7C04620
:1010B0003C20000010B543890A1493421ADD530006
:1010C0009B184269DB00D3180469EFF3108C72B6E9
:1010D0002268002AFCD0BFF35F8F5A88090494B2BB
:1010E000090C8A4208D00369BFF35F8F00221A609F
:1010F0008CF31088002010BD8022120214435C8003
:10110000012302698371BFF35F8F002111608CF3AB
:101110001088044902788C469340C26801206244DA
:101120001360E8E73C20000040787047F0B5C64601
:1011300000B582B0040000F00FF9FA2206000F009B
:10114000200000230021920000F054FD8019794115
:1011500004000D1E02DA01242E4D6442062676425A
:10116000F71736196F41AF4214D811D000F0F4F8D8
:1011700032003B00121A8B41002B15DC002B46D0AD
:101180002000290000F026F902B080BCB846F0BD6E
:10119000A642EBD90026002700F0DEF832003B0023
:1011A000121A8B41002BE9DD00F0D6F832003B002B
:1011B000121A8B41002B0ADB00230193164B3200DD
:1011C000009316483B00FFF71DFF0130D8D00023E5
:1011D0003900B0469C46124A1248536A994204D8D4
:1011E000966A4645CCD29942CAD10668EFF3108779
:1011F00072B63368002BFCD0BFF35F8F0368BFF378
:101200005F8F66461E6087F3108820BFE5E7002ADF
:10121000B6D0C9E7FFFFFF7F210B0010E40F0020CD
:1012200000400540541F0020F0B557464E46DE46AC
:101230004546E0B506000F0085B0EFF305839946FB
:101240008B46002B12D0384900204B6ABB4206D394
:101250008A6ADB1B591E8B41B2424041184305B0DC
:10126000F0BCBB46B246A946A046F0BD2F4B9A46FD
:10127000DB68984653461B784046039300F064F8B9
:101280004246039B040004339B009B580D001B1A2D
:1012900039003000001BA941894510DC0DD020BF6A
:1012A000214A0020536A5B45D9D3926ADB1B591E41
:1012B0008B41B24240411843D1E78342EFD900F05D
:1012C0004BF832003B00121A8B41002B1ADB002333
:1012D0000193174B3200009350463B00FFF792FEFC
:1012E000011E0FDD104B5A6A5A451BD39B6AB3424D
:1012F00016D35046FFF7DEFE0B4A0020536A5B45CB
:10130000ADD3D2E7084A0020536A5B45A7D300203B
:10131000926ADB1BB24240415A1E934118439EE73A
:101320005A45E6D120BFE4E700400540E40F002025
:10133000210B001010B5024A0248FFF741F810BD1A
:10134000844B0010AC1A00200300416A0A00986A1E
:10135000596A8A42FAD17047034B596A0A00986A5F
:10136000596A9142FAD170470040054070B50400B7
:101370000D00174A536A1900966A536A8B42FAD1D4
:101380003000190024184D41AB4216D813D0104B31
:101390002A005B6A9D4203D90D494B6A9342FCD3F4
:1013A000934207D10A4A02E0516A994202D1916AF6
:1013B000A142F9D370BDA642E9D9054B5B6A1C0076
:1013C0005A1CEFD0012201246442E5175242E3E7A0
:1013D00000400540064A536A9942FCD807D1044BA5
:1013E00002E05A6A914202D19A6A9042F9D8704753
:1013F00000400540F8B5040006200D0000F078F923
:10140000002844D0374B3849E3185A1E93418022B4
:10141000120494465B429B0D344A9B05634413605F
:10142000334A136018000A689043FBD12D4B314AB0
:10143000E31859424B4180215B0049000620995234
:1014400000F056F92900C00000F046FB0130C30946
:101450001ED1402701226262A362266BF30722D4C9
:10146000E36A254B0620E51800232B60266300F075
:101470003FF93900800000F02FFB7023E26A5A40E8
:101480000E3313402B601D4B23630323A364F8BD6D
:101490001B4A93421ED900231A4A1B4F6262A36261
:1014A000266BF307DCD5194B144AE3181A60656AFA
:1014B000A36A0620AD01ED1800F01AF9144900F0F6
:1014C0000BFBAD020100280000F006FB0021FFF736
:1014D0004DFFC5E74006800E9F011A003F1803002C
:1014E000B9E7C0460080FCBF08C0004000E00040F3
:1014F00000F00040601F00202C10000001030000DD
:10150000FEFF0000FFFF0000C0FF3F003030000082
:101510004E0E0000F8B5DE464E4657464546E0B54D
:101520008B4605000A991800160000F0D5FA0A9BB0
:101530006C001F02324B64199C46A400644463682B
:1015400081469F4200D967602B1FDBB29846012B72
:1015500030D9C02380229B01E31812011A60294B65
:10156000AD0059599A4600291BD17301E026226823
:1015700053401E40802342465B01E3181E60012A4F
:1015800030D9802380229B01E31812011A60534650
:101590004A4667605A51F0BCBB46B246A946A046CF
:1015A000F8BD586900F098FA013043001B18033B5E
:1015B000FDD2DAE75B46012BCBD1C02303229B018E
:1015C000E3181A60023AA3681A42FCD07301E026BD
:1015D0002268AD0053401E4080230A4A5B019246B8
:1015E000E3181E605A462168514003220A401A60DF
:1015F00001225B469A40A3681A42FCD0C1E7C0466C
:1016000000800040B01A0020F0B546464F46D6464E
:10161000C0B51F00344B44009C462418A400644409
:10162000636888461600FF2B02D880235B00636046
:10163000031FDBB29A46012B30D9C02380229B01C5
:10164000E31812011A60294B85005959994600295F
:101650001BD17301E026226853401E40802352466E
:101660005B01E3181E60012A30D9802380229B0190
:10167000E31812011A6080235B0063604B465F51E0
:10168000E0BCBA46B146A846F0BD586900F024FA5D
:10169000013043001B18033BFDD2DAE74346012B20
:1016A000CBD1C02303229B01E3181A60023AA3683E
:1016B0001A42FCD07301E0262268850053401E4088
:1016C00080230A4A5B019146E3181E604246216866
:1016D000514003220A401A60012342469340A26807
:1016E0001342FCD0C1E7C04600800040B01A002081
:1016F000014B8000C0587047B01A0020F8B50400B4
:1017000021481E0017000D0000F0E6F90100380026
:1017100000F0E2F9069B36041B031E432368002BEE
:1017200020DB1A4B1A49E3185A1E9341802292017A
:1017300094465B421B0B174A1B0363441360164A13
:1017400013601F000A689743FBD1144B2560E21811
:101750002123A06013602368002BFCDA0823E660D5
:101760001360F8BD3F2322681340AB42D9D1A36870
:101770001B051B0D8342D4D1EE22E368D202134035
:10178000B342CED1EDE7C046001BB7000040FDBF1D
:1017900008C0004000E0004000F0004004300000BD
:1017A00010B580241C4BE4051C6000281AD00123CE
:1017B0001A4C18431A4BDC611A4C44401C625962A3
:1017C00098628021144BC9051960174817490860B1
:1017D000E021C9041960002A07D18022144B1206A7
:1017E0001A6010BD0E4BD861EBE753019B1A9B00AA
:1017F0009A18802312015B049A4209D213000D4902
:101800000B60074B5A608022094BD2051A60E8E74B
:10181000094B1A00F3E7C04600B00540D3C007B03B
:10182000008005402D3FF84FFCFF010008200140DB
:1018300000A00540101F0020FFFFFF008023024A88
:101840009B000B43D362704700800540002310B516
:101850000100988A1B8B984710BDC046162310B50F
:101860000100188802331B88984710BDF8B5474619
:10187000CE4680B50F1E18D01423994604330400B9
:101880000025012698464B461888434621681B8848
:10189000984701C4431E984101350640AF42F2D13A
:1018A0003000C0BCB946B046F8BD0126F8E7C046D6
:1018B000002370B504000D00988A03491B8B9847DC
:1018C000290003002000984755420000002370B50E
:1018D00004000D00988A05491B8B984703000020DF
:1018E000002C01DB0130A040290098475542000040
:1018F000AA23064A1B0113608D235B00D3600449B1
:10190000044B19605368002BFCDA7047004002401A
:1019100000B0FA00006002407047C04610B50148B0
:10192000FEF736FDA84B001070B5074D074EB542C7
:1019300009D20024013E761BB60808CD9847230043
:101940000134B342F9D170BDC84A0010044B0010F5
:10195000054B064A06491A60064A074B1A601000F2
:101960000B689843FBD1704700E00040BFCDFBFE01
:1019700008C00040FE7F3C0000F00040044BDB6CE0
:10198000002B03D18022034BD2021A607047C0465D
:10199000000011504C201150044A054B1A60054AB2
:1019A0001368DB018033FBD17047C046FFFFFF01A6
:1019B00000F0004008C000404022034B9A675A677D
:1019C0001A67DA667047C04600F0014010B5FEF7AE
:1019D0007BFD10BD70B5044D044CA968C0222000E9
:1019E00000F078F9AC6070BD00ED00E00000002070
:1019F000002310B5294C82B0A367FFF779FF0122BD
:101A0000274B1A60636C012BFCD10322254B1A6013
:101A1000224A936B012BFCD1013300930121224A0E
:101A200022480433FFF76AFE052301210093204A70
:101A30002048FFF763FE0022022104201E4BFFF71F
:101A4000E3FD0022012105201C4BFFF7DDFD0022F4
:101A5000002107201A4BFFF7D7FD002200210820A4
:101A6000174BFFF7D1FD8023DB00009300220021FC
:101A70000920134BFFF74EFD0022104B00210620DA
:101A8000FFF7C2FD0420FFF733FE0E4900F024F8F3
:101A900001000020FFF7D2FE02B010BD0080004020
:101AA0003CB0004030B00040002F68590080024038
:101AB000008C864700C00240001BB70040597307E6
:101AC000006CDC0240420F0001480421014B184722
:101AD000001000206D180010114A936F9B0813D25C
:101AE00010665166002905D0FFE7FFE7FFE7516F59
:101AF000106F704704B5002801D00020C04302F0E9
:101B00009BFF002104BDC046F0B5146E556E576FA3
:101B1000166FFFF7E5FF1466556657671667F0BD49
:101B2000000000D0132370B51D78012D19D014DDED
:101B30001F48FFF793FE06001E48FFF78FFE1E4C5E
:101B400080223100200000F0C5F8022D2DD01B4866
:101B5000FFF77CFE1A4B186070BD1A4B164CA3643D
:101B6000F5E7184B144C23606360A360E3602361C6
:101B70006361A361E36123626362A362E36223633F
:101B80006363A363E36323646364A364E36423651F
:101B90006365A365E36523666366A366E3662367FF
:101BA0006367A367E367A364D1E7064BA364CEE74B
:101BB0005344000053460000001200204C33000044
:101BC000501F0020C91B001007B5604601880A0A93
:101BD0000230DF2AFAD1C9B2820804D302884088D1
:101BE0000004104300E00068014A5050039007BD14
:101BF0000012002051434343C9188C46110C83B294
:101C00004B4310B4040C614392B280B25043624320
:101C10001C041B0C001910BC59411304120CC018F1
:101C20005141614470470000132310B512481C78DD
:101C3000FFF714FE0100012C0AD003DD80220F48BB
:101C400000F048F80E48FFF701FE0E4B186010BD7B
:101C50000A4C5422200000F03DF80B4B6365A3654D
:101C6000E36523666366A366E36623676367A3672A
:101C7000E3672362E361E5E75346000000130020B9
:101C80004C330000501F00208D1C001007B560462B
:101C900001880A0A0230DF2AFAD1C9B2820804D3C5
:101CA000028840880004104300E00068014A505058
:101CB000039007BD0013002001480421014B184781
:101CC000101000206D180010014B1B681847000011
:101CD00010100020014B5B68184700001010002016
:101CE00010B5002800D110BD00F034F9FBE7C04664
:101CF00010B5094A0300146884B0002C08D00122F2
:101D000000910648524203A9A047012004B010BD2B
:101D100000F06AF90020F9E70C1F0020E11C001018
:101D200000BEFDE710B5FFF7FBFFC04670B5FFF73B
:101D3000FBFD074D074EB54209D20024013E761B3C
:101D4000B60808CD984723000134B342F9D170BDDD
:101D5000044B00100C4B0010030010B508001100DC
:101D60001B68984710BDC046F0B5C64600B5437D18
:101D700007000C001600002B46D0002A17DD0B7858
:101D80000A2B24D000239846012E13D001252900C8
:101D9000635C01350A2B26D0B542F8D1464509DCF3
:101DA000A419013C23780D3B5A4253413B7580BC3A
:101DB000B846F0BD4346E018A419F11A013C3B684F
:101DC000984723780D3B5A4253413B75EFE7037D1B
:101DD000002BD7D102210F483B689847012EDFD056
:101DE00001239846D2E7631E5B5C0D2BD4D0884557
:101DF00004DA4346C91AE0183B68984702210548AF
:101E00003B68A8469847C7E7036811002000984739
:101E1000CDE7C046244D0010F0B54546DE464E469F
:101E20005746E0B583B091461C0080460D00FFF791
:101E300093FA0023304A12184B41002B02DA012298
:101E40002E4B52422E4908008A4602F015FE07002A
:101E50006B1C03D1404602F0AFFD0500002C27D0DB
:101E6000284E294B1C68002C18D04B46002B21D142
:101E7000264B994602E02469002C0FD02368002BE2
:101E8000F9D04B461B68002B01D09C42F3D12000B7
:101E90002A004146B0472469002CEFD1002F26D1FB
:101EA000280003B0F0BCBB46B246A946A046F0BD30
:101EB000174ED6E7154B99460A239B4602E0246944
:101EC000002CEBD02368002BF9D04B461B68002B6D
:101ED00001D0A342F3D12A0041462000B0476B460F
:101EE0005A462000DA71D91D0122B047E7E7504673
:101EF00002F09AFDD4E7C04640420F00FFFFFF7F8B
:101F000070100020691D0010001B0020081B00201D
:101F1000591D00100A4A1368002B05D10CE01A0065
:101F20001B691032002B07D08342F8D1002902D15F
:101F300018691060196170470029FCD01060FAE739
:101F4000001B002010B500F03BF900F077FB0120EA
:101F500010BDC046F0B5CE46474680B583B06B464F
:101F60000600DD1D2870FFF7F7F90023194A121843
:101F70004B41002B02DA0122174B5242174908004D
:101F8000884602F079FD164B81461C68002C14D05F
:101F9000144F02E02469002C0FD02368002BF9D0E5
:101FA0003B68002B01D09C42F4D120000122290083
:101FB000FFF7DAFE2469002CEFD14B46002B05D148
:101FC000300003B0C0BCB946B046F0BD404602F098
:101FD0002BFDF5E740420F00FFFFFF7F7010002050
:101FE000001B0020081B002070B5040002F0E4FC78
:101FF00001230100050001222000FFF70DFF084B1F
:102000001C68002C06D06368002B05D09847246913
:10201000002CF8D1280070BD2469002CF3D1F9E719
:10202000001B0020F0B5002915DD0E4B0D271A68A6
:102030000D4B0E4CD3185D426B41451820215B00BF
:102040001E5F0478A64207D093691942FCD1013083
:102050001460A842F5D1F0BD93691942FCD1176014
:10206000F2E7C046641F00200080FCBF601F002014
:10207000204B70B504000D1E1E682ADD00201021C3
:102080001D4B013C1A689369194214D101309369C0
:102090001942FCD1136823548542F4D1002E08D094
:1020A00050239363516B183B0B4014498C46624498
:1020B0001360280070BD002E08D050239363516B2D
:1020C000183B0B400D498C46624413600028F1D147
:1020D0000CE0002E0AD05022074B1B689A63596B04
:1020E000183A0A4005498C4663441A60032040426E
:1020F000E0E7C046981A0020641F0020341000005A
:10210000064B10B51B68002B06D00021044A12684C
:102110009163044A1068984710BDC046981A002081
:10212000641F0020A01A00200822034B19688B6945
:102130001A42FCD17047C046641F0020F8B51A4F00
:102140001A4B3A680500D31858424341184E1433CD
:102150001C003368002D02D0002B0FD0F8BD002BDF
:10216000FCD0002120009563FEF7CEF92000114934
:10217000FEF726FB104B35601D60EFE70E4B20008D
:1021800019600C493560FEF7F7F901212000FEF7D0
:10219000BBF950223B689A63596B183A0A400749C9
:1021A0008C4663441A60D9E7641F00200080FCBF9E
:1021B000981A002001210010A01A002034100000FD
:1021C0000D4B10B51B780D4B0D4C1B780D4B0221A0
:1021D0001B780D4B00202360FEF79AF802210120A6
:1021E000FEF796F8E12120684902FFF703F9012183
:1021F0000648FFF78FFE10BDD04F0010CC4F0010E7
:10220000641F0020C84F0010004003402010002031
:102210007047C0460022014B1A7070477E1F002095
:102220004B790020FF2B0BD18B79002B08D1CB7978
:10223000012B05D1082A03D9024B8A7809301A707C
:102240007047C0467E1F00200120704710B501294D
:1022500013D112495379107909781B0203430020E6
:10226000994200D010BD5378012B08D0022BF9D130
:10227000642200210020FFF793FA0120F2E7D378CF
:1022800091781B021943480ADB0501D40120404222
:102290007F238A05D20F1940FFF718FB7E1F00200D
:1022A000004870470C4E001070B505001400012066
:1022B000012909D153780020012B05D163791279C6
:1022C0001B021343072B00D070BD21002800024AD7
:1022D0009F3301F055FAF7E7644D001001230370B6
:1022E00000487047444D00104B780A781B02134396
:1022F0008A7810B512041A43CB781B061343962232
:10230000D200934200D010BD0022012011004042B3
:10231000FFF7DCFA024B1860024B19607047C046A9
:102320009C1A0020A41A002010B5024B1878FEF762
:1023300009F910BD7F1F0020154B70B51A68002ADF
:1023400022D0EFF3108172B610680028FCD0BFF3E2
:102350005F8F00200F4A596010701B68BFF35F8FBA
:10236000186081F31088002400250B4E3078FEF7AA
:10237000DDF8002804D1002400252900200070BDCC
:102380003078FEF7DFF8F8E7FA240025A400ECE740
:10239000301F0020801F00207F1F002070B5040028
:1023A00000200E0001F00AFB002834D0002001F0CC
:1023B0001BFB00282FD0FEF7CFFF0023174A12186F
:1023C0004B41002B16DB164D280002F055FB002870
:1023D00021D0002001F0F2FA00280FD101200021C5
:1023E000404200F001FD03246442280002F01CFB7F
:1023F000200070BD01220B4B5242E4E7002001F0A7
:10240000F3FA0028EAD021003200002001F0F6FAA9
:10241000041EEAD1E7E703246442E9E740420F00E3
:10242000581F0020FFFFFF7F10B5FEF795FF002328
:102430000D4A12184B41002B02DA01220B4B52427B
:102440000B4C200002F018FB00280CD001200021CA
:10245000404200F0C9FC002001F014FB0028F5D137
:10246000200002F0E1FA10BD40420F00FFFFFF7FA5
:10247000581F0020F8B5DE46574680B505000C0011
:10248000FEF76AFF0023364A12184B41002B02DA8E
:102490000122344B5242344908008A4602F0ECFAD9
:1024A000002803D1C0BCBB46B246F8BD002001F0F5
:1024B00085FA00284AD00026002C43DD2B4B9B4692
:1024C00014E0A919002001F017FB070001200021EA
:1024D000404200F089FC002001F0D4FAFEF73CFFF6
:1024E000224BF61918605960B4422BDD002001F030
:1024F00023FBA71B0200B84200DD3A00002AE0D10E
:1025000001200021404200F06FFC002001F0BAFAE7
:10251000002001F053FA002814D0002001F00CFB39
:102520000028E1D1FEF718FF5B460F001A685B68D0
:10253000002184460E4812184B419F4202D8D3D145
:102540009445D1D9504602F06FFAABE70020002144
:10255000064B18605960504602F066FAA2E7C04682
:1025600040420F00FFFFFF7F581F0020F81100209E
:1025700020A1070030B52A4C85B00021200002F0D0
:1025800063FA00281CD1274B1A68002A16D0EFF3F3
:10259000108172B610680028FCD0BFF35F8F012451
:1025A0002148596002781B68D2B20470BFF35F8F74
:1025B0000020186081F31088002A17D005B030BDC4
:1025C00001200021404200F00FFC002001F00CFA35
:1025D0000500200002F028FA002DEFD0134B1B68F5
:1025E000002BEBD0124A10689847E7E7FEF79EFCF5
:1025F0000400FEF7B1FEFA220023920012184B41AC
:10260000002B02DA01220B4B5242012102910021E0
:102610000191094920000091FEF78CFCCEE7C046ED
:10262000581F0020301F0020801F00209C1A00200F
:10263000A41A0020FFFFFF7F39230010D02310B51C
:102640001B0684B01C68FEF771FCFEF76DFDA0420E
:1026500002D0002004B010BD294B002100201B78BF
:1026600001F05EFD27480368002B45D00120FEF7EE
:10267000EBF9FF23244C254920701840FDF77CFF1F
:1026800020780121FDF740FF0520FDF763FF0028BA
:1026900024D1082200211E48FFF716FBFEF746FC56
:1026A0000400FEF759FEFA220023920012184B4153
:1026B000002B02DA0122174B524201210291002124
:1026C0000191154920000091FEF734FC0028C0DB81
:1026D00012480121FFF71EFC0120BBE70120FDF796
:1026E000E1FE0B4B01001800FEF710FA0022052056
:1026F0000B49FDF76BFFEBE7FEF7ECF9B6E7C046D9
:10270000D44F0010581F00207F1F00207525001097
:10271000301F0020FFFFFF7F3923001038100020FA
:102720002923001000487047A84E00100048704749
:10273000544E001010B5040017480378002B20D029
:10274000002C06D1154B16484380063BFF3B038007
:1027500010BD052C1DD8134BA400E05812490123CD
:10276000013804E001330A800231142B0DD0C25C21
:10277000002AF7D1C022DBB25B0092000848134365
:10278000E5E7112100F01AF8DAE7CA2304489B00B4
:10279000DDE70020DCE7C046681F002009040000D8
:1027A000D81A00203C4E0010DA1A002010B502485A
:1027B00000F0D8F810BDC046481F002030B54B1EB1
:1027C000012900D1A7E0664A11780D092C003034A8
:1027D0009F2900D9A2E00470012B00D1BEE00F2197
:1027E000147821400C003034092900D998E0447055
:1027F000022B00D1B2E054782509290030319F2CFA
:1028000000D990E08170032B00D1A7E00F21214077
:102810000C003034092900D987E0C470042B00D1A2
:102820009CE094782509290030319F2C00D97FE065
:102830000171052B00D191E00F2121400C003034B3
:10284000092900D976E04471062B00D186E0D478BE
:102850002509290030319F2C00D96EE08171072BAA
:1028600000D17BE00F2121400C003034092966D8CB
:10287000C471082B00D171E0147925092900303189
:102880009F2C5FD80172092B68D00F2121400C00CA
:102890003034092958D844720A2B5FD0547925095D
:1028A000290030319F2C52D881720B2B56D00F212A
:1028B00021400C00303409294BD8C4720C2B4DD068
:1028C00094792509290030319F2C00D907310173F3
:1028D0000D2B43D00F2121400C003034092901D9A0
:1028E00037310C0044730E2B38D0D1790C092200FB
:1028F00030329F2900D9073282730F2B2ED00F223E
:102900000A4011003731092A01D830321100C17351
:10291000102B23D010300023037030BD07345AE74A
:1029200037310C0063E707316CE737310C0074E78F
:1029300007317DE737310C0085E707318EE7373106
:102940000C0095E707319DE737310C00A3E707310D
:10295000AAE737310C00C4720C2BB1D1C018DAE7EA
:10296000481F002010B588B004000D2200216846E1
:10297000FFF7AAF90D22002104A8FFF7A5F94B23C0
:102980006A466846137004A90D2202F045F8152125
:10299000082220006944FFF79DF908B010BDC04629
:1029A000F8B500F047F90C23194DFF22AB6705205D
:1029B0001849FDF70BFE184C402200212000FFF7BC
:1029C00083F94027002301262121144A66702783BA
:1029D000A260136063545F31618445396354104AC7
:1029E00010496360E2602787A1620B606362E26264
:1029F00002F062F880239B052E64EB6490230A4A60
:102A00000120EA508022094B5202DA64F8BDC04628
:102A100000001150F90400200C1B0020840010500D
:102A2000000110508000105010D001000020115003
:102A300010B501210520FDF767FD10BD10B500227E
:102A40000021024800F016F910BDC0462C1B0020E2
:102A5000044B1970002904D080219023024A890276
:102A6000D15070477A1F0020002011500B785B0670
:102A700002D14B78052B00D070478A78014B1A6041
:102A8000FAE7C04600001150F0B5C646C87800B558
:102A90008007830F1800012B60D08F780A794B795B
:102AA0007F213940FC091B024E001343334D32197C
:102AB0005201AA18977001276740577000275B05DD
:102AC0005B0DD7701383D076B846CA00012C32D084
:102AD0002B4FBC468F016244BC46AC446746BA608B
:102AE00047461760002932D0264AC9009046624600
:102AF000414451603F223F339343022837D022495B
:102B000037190A687F01D3180B602049EF19FA6062
:102B10008B422ED836197601AD19EB7E1C499B06E7
:102B20004A4013438022120613436A68136001204F
:102B300080BCB846F0BD174FBC468F016244BC460E
:102B4000AC446746BA6247461760002908D10023A3
:102B500064012C196360104BE360E8E70020E7E7AD
:102B60000B4AC9009046624641445162C2E75B008D
:102B7000C5E7FEF7D3FEFA68CCE7C0460C1B002081
:102B80008400105004001050141F0020FF0F10503C
:102B900000001050800010500001105010B501F0DE
:102BA0008BFF10BD10B57F200C0020404000E409D1
:102BB000110000191A00034B4001C01800F05AF828
:102BC000012010BD0C1B00207F23180000B5084019
:102BD00083B00B4204D14B424B41084A0133936608
:102BE0008022C9094000064B401840010021C0184E
:102BF000120101F051FF03B000BDC046002011508A
:102C00000C1B00207F22130010B50B400A4200D19C
:102C100010BDC9095B005B1804485B01C0180023A4
:102C200000220349C37001F037FFF1E70C1B0020BD
:102C3000FFF7FFFF80220A4B520410B51A60094BC0
:102C400009491A6010000B689843FBD180220021CB
:102C500052010648FFF738F80922054B5A6710BDA4
:102C600000E0004000F0004008C0004000001050AC
:102C700000001150002310B5C38201338282837695
:102C80000161040001F010FF002804D0802190238E
:102C9000074A8902D150200001F0E6FE002802D048
:102CA0000123237710BD200001F0EEFEFAE7C046B5
:102CB000002011507047C0467047C0460020704742
:102CC000002070477047C0467047C0467047C046F6
:102CD0007047C046024B5878431E9841C0B27047B7
:102CE000B0150020024B18784007C00F7047C0464F
:102CF000B0150020F0B5D6464F464646C0B52F4B1E
:102D000007009A461B780E00FF2B50D1002941D0B6
:102D1000002154222A48FEF7D7FF0022294C2A4BD3
:102D200020001A70FDF7D6FE284B1C60284C2000AE
:102D3000143CFDF7DDFE200001F0FAFD254B264D89
:102D40001C60264B002B04D02800FFF7C7FA244B49
:102D500018602449002489462149002388462A789E
:102D600010E043461B6862019B18002B12D05B6881
:102D7000002B0FD098472A780134E4B2511C23006D
:102D8000A14209DBA242ECD89B1A5B014B445B6871
:102D9000002BEFD100200BE05346310038001F70AC
:102DA000FFF7FEFD0028F5D03800FFF741FE0120B7
:102DB000E0BCBA46B146A846F0BDC0466C10002043
:102DC000B0150020A81500207B1F0020041600204D
:102DD0006410002008160020791F0020DD2200105A
:102DE00000140020644F0010F0B5DE4657464E46F2
:102DF0004546E0B5C84B91B002931B78FF2B00D13C
:102E00003EE1C64BC64E9B465F46C64B0DAC01939A
:102E1000C54B009335686A69EFF3108172B6136889
:102E2000002BFCD0BFF35F8FA9612800210001F0C7
:102E3000AFFB6A69AB69BFF35F8F0021116083F359
:102E40001088002800D11BE16378082BE2D89B0092
:102E5000FB589F466368002BDCD0A0689847D9E7F1
:102E60007F222179AF4D0A405300EB189846C809DC
:102E7000804440460123303005799D430571057932
:102E800003339D430571002A00D100E14346A74A60
:102E90001B7D1278934200D3EFE0A54A5B011568D1
:102EA000ED18002D00D1EBE0A36862792078AD69C0
:102EB000A847AFE79F4A1378002B00D1E0E01378D2
:102EC000013BDBB213701378002BA3D10122954D87
:102ED00001212B78042013432B703423EA5C8A43AE
:102EE000EA54EA5C8243EA540133EA5C8A43EA54D6
:102EF000EA5C8243EA54237800209B4600F09EFC63
:102F0000602223791A40602A00D1EFE0402A00D1E4
:102F1000F5E0DB06DB0E012B00D113E1022B00D123
:102F2000C7E0002B00D0E1E0202A00D11CE2002AFB
:102F300000D0DBE06379092B00D9D7E07E4A9B0003
:102F4000D3589F46774D2B78DB0700D462E7FFF715
:102F5000BFFE5FE7019BDB78DB0700D45AE76068C0
:102F6000FFF7AAFE56E76F4D2B78DB0700D451E739
:102F700028780007C00FFFF7A9FE4BE723786A49BE
:102F800099468B46694B6A4998468A4639001A78B1
:102F900047460023B04600254E46894610E053467A
:102FA0001B686A019B18002B00D176E0DB683000BB
:102FB00098473A780135EDB2511C2B008D4244DC24
:102FC0009542ECD39B1A5B015B44EFE723785849A9
:102FD0009946564B8A4698463100BB464E461A786B
:102FE00000250023474689460FE053461B686A01C7
:102FF0009B18002B55D0DB68300098473A78013594
:10300000EDB2511C2B008D4207DC9542EDD39B1A8B
:10301000009A5B0194466344EDE7019D5422002130
:103020002800FEF751FE1022FF214448FEF74CFE17
:1030300028002022FF2114304E465F46FEF744FE52
:1030400000F0F2FBFFF740FEE4E6364D542200218B
:103050002800FEF739FE1022FF21281DFEF734FE5E
:1030600028002022FF21143046464F46FEF72CFE52
:1030700000F0DAFB2379AB70CCE6501C984213DAEF
:1030800011B0F0BCBB46B246A946A046F0BDA3684D
:103090006279207800F0E6FBBCE646464F46214DBB
:1030A000E6E74E465F46CBE71F4D9B1A5B015D1975
:1030B000FAE67023217A0B4218D1C80982460F33F1
:1030C0000B405B0098461948EB1853441B7D007871
:1030D0009946834266D216485B010068814699444E
:1030E000002A00D15FE14B46002B68D120780021F7
:1030F000FFF76AFD80212078FFF766FD8AE6104819
:1031000000F09CFB012158460EAAFFF7CDF80028DD
:1031100000D07FE6EAE7C0466C100020BC4E0010ED
:1031200008160020B0150020644F0010791F002001
:10313000001400207B1F0020E04E0010B41500207A
:10314000A9220010237A0F2BD0D8CF4AEB181B7975
:103150001578AB423ED3691C9942C7DB5D1BCB4B54
:103160006D01ED18686900F069FB012158466B6933
:103170000EAA9847002800D04CE66022150023795B
:103180001D401A42B2D163790A3B012BAED800F040
:1031900055FB63790A2B00D199E158460EA900F03E
:1031A000D9FA37E6431C4B4500DAF7E04B461B1AC9
:1031B0005B019946B5488144002A00D1F3E04B46B3
:1031C000586900F03BFB4B46012158465B690EAA4B
:1031D00098479CE7AE4A5B011568ED18002DC1D1F8
:1031E00084E7A37999466B789945D6D06B78002B04
:1031F00000D033E14B466B70002B00D12BE14846E9
:103200000138C0B2FFF792FA002800D17EE143787E
:103210000793022B00D079E10122C179B1468B11CD
:10322000491113400A40302112015B0113432A78EF
:10323000A8468A4313432B7009239A468244564674
:10324000BA46C37882781B021343C31805938E4B8A
:1032500004938E4B08938E4B09938E4B0A93059BD8
:10326000B34200D855E1737801220B2B03D1337898
:10327000F278F6187378042B00D044E1059B002700
:103280009B1B9BB20693049B0B921D780023039318
:103290001BE0099A7B011568ED18002D00D132E181
:1032A000310058462B69069A98478446082803D966
:1032B000069A824200D313E1049B01371D78FFB2C6
:1032C0006B1C03979F4200DD1DE1BD42E1D8039BCB
:1032D0005D1B089B6D019C466544E1E76B780CAA79
:1032E00002321370584601230EA900F049FA91E505
:1032F000E3881A0AD8B20F2A00D9F7E66649930084
:10330000CB589F460EA800F09FFA5846A179FFF7C8
:1033100095FB02222B7813432B707BE5E388012B6E
:1033200000D0E3E608222B78584693430EA92B7071
:1033300000F010FA6EE5022029780CAB9A1C8B067F
:103340008908DB0F01400B431380584602230EA966
:1033500000F016FA5EE5E388012B00D0C6E60822ED
:103360002B7813432B7018E7237A0F2B00D9BDE677
:10337000EB181D79444B1B789D4228D2444B6D01BC
:103380001B685D19002D00D1B0E6686900F056FA9F
:10339000012158466B690EAA9847B8E6002A00D06A
:1033A000A4E6002399466279022013000392834326
:1033B000012B15D0002A00D098E62B00434453443B
:1033C00030331B790CAA9B07DB0F0232BCE75A1C77
:1033D000AA4200DA8AE6ED1A2C4B6D01ED18D4E70B
:1033E000E388002B12D1029B1878039B012B23D07A
:1033F000FFF7EAFB43460221EB18534430331A79B6
:103400000A4301211A711A790A431A714B46002B9B
:1034100000D1FFE4586900F011FA4B4601215B69C5
:103420000EAA58469847002000F008FA3523EB5CB6
:10343000DB0700D5EEE4B0E6FFF7E4FB43460221EC
:10344000EB18534430331A798A431A711A79039965
:103450008A431A71DAE7FFF737FC9EE600215846E7
:10346000FFF7F6FA5846FFF799FBAB780749039345
:103470000491054B064998461A78059100232900C6
:103480001D008A461BE0C046791F0020644F0010D3
:1034900000140020C4150020084F0010059B6A018D
:1034A0001B689B18002B4DD0DB6858469847434655
:1034B0001A780135EDB2511C2B008D422EDC95425D
:1034C000ECD39B1A049A5B0194466344ECE70CAB83
:1034D0009A1C584601230EA9157000F051F999E481
:1034E0000B9A012A4FD0002A3CD00023B07804E088
:1034F0000133DBB20F71934234D2C118C9B24144D7
:103500000D79FF2DF4D04E464546574600236B708B
:10351000ECE54E465746FFF7D5FB3EE655465422AE
:1035200000212800FEF7D0FB1022FF21281DFEF706
:10353000CBFB28002022FF211430FEF7C5FB039BA4
:10354000AB7057E65546FAE7FEF7AAFE021E00D119
:10355000CCE5D37891781B020B4358460EA900F0B6
:103560000FF9D4E565463B002A0031000A9800F0C7
:103570007FFEAC46049B039A1B786644013393425A
:1035800000DB6CE6BFE7174B29699942ADD1079A7A
:10359000ABE7FFF793FB021E00D1A7E5584613786F
:1035A0000EA900F0EDF8B2E52189FFF7C3F8021E7D
:1035B000F4D19BE5022A0FD0FFF782FB021EC8D18F
:1035C00094E5FFF7AFF8021E00D18FE512235846AD
:1035D0000EA900F0D5F89AE5FFF7A8F8021EB8D1B9
:1035E00084E5C046393C0010F8B557464E46DE46E5
:1035F00045460C00E0B516001F00002A3CD07023A1
:1036000098461E4B00259B461D4B9A461AE05B468A
:103610001B78200099465346997800F0EBFD00286E
:103620001CD021004846FFF72FFA002816D0A378B7
:10363000DA09012A19D00A9A013513702378E4189F
:10364000B54219DA6378052B08D1E3789B079B0F05
:10365000BB4203D14246A3781A42D8D00020F0BC26
:10366000BB46B246A946A046F8BD0B9A0135137079
:103670002378E418B542E5DB0120F0E76C10002068
:10368000B0150020702270B58B780C001A4201D062
:10369000002070BD064B20001D78064B997800F085
:1036A000A9FD0028F4D021002800FFF7EDF9F0E78C
:1036B0006C100020B01500200B007F2010B51840C2
:1036C000DB0934334000044AC018044B1168C018A9
:1036D00000F04CFD10BDC04604160020B0150020BF
:1036E0000B007F2010B51840DB0934334000044A3A
:1036F000C018044B1168C01800F060FD10BDC04632
:1037000004160020B015002070B57F240F480C402F
:1037100064000419CD09641930342079C00701D53B
:10372000002070BD012625790948354300782571B0
:10373000FFF738FA0028F4D101222379934323714B
:103740002379033293432371EAE7C046B015002082
:103750006C10002070B5094C0600082220000D00F6
:10376000FEF7B8FA00238021E360A3602B783000D5
:10377000994300220023FFF7C7FF70BD901500207A
:10378000F8B5CE4647469046254E80B5814608227C
:1037900030000D001F00FEF79DFA4346B360002382
:1037A000F381EC79AB7924021C43231CBC4200D981
:1037B0003B1C9FB2B381002C0DD0002F17D0424686
:1037C000002A2BD0402F1BD89FB233787F2B1CD8D8
:1037D0000021144A0FE080212B78002299434846AB
:1037E0000023FFF791FFC0BCB946B046F8BD7F2368
:1037F0000022317899433B004846FFF785FFF2E706
:1038000040239FB233787F2BE2D9064C3A004146E1
:103810002000FEF75FFA80212200ECE70020E2E7BB
:10382000901500205015002010B5142200210248E8
:10383000FEF74AFA10BDC04690150020014B1861F2
:103840007047C0469015002010B5054C01000822B5
:103850002000FEF73FFA0023A360E36010BDC046DE
:103860009015002070B5384C1D0023780600DA0949
:10387000C9098A4210D00020002D00D070BD21005F
:103880003000FFF7F3F82369002B03D02200032157
:10389000300098470120F1E77F2B06D8A068002868
:1038A00034D02A002949FEF715FAE289A168521995
:1038B000E38892B24919E281A160934214D03F2D6E
:1038C00012D9A389981A051C80B240282AD82078DA
:1038D000ADB27F2828D800219A4232D01B4A2B0053
:1038E0003000FFF711FFC9E72369002B05D0220044
:1038F00002213000984700280AD080212378002236
:10390000994330000023FFF7FFFEB7E70020B5E73B
:1039100000213000FFF758F930008021FFF754F9FB
:103920000120ABE74025D2E79A4207D0074C2A0096
:103930002000FEF7CFF980212200D0E7802100226D
:10394000CDE70022CBE7C04690150020501500209F
:1039500070B50400FFF7BEF9002800D170BDFFF775
:10396000C1F90028FAD1C8236343124DEE18F1784B
:103970000029F3D010335D19280000F0F3FD3F2833
:10398000ECD90020F178FFF797FE0028E6D0280058
:1039900000F0E8FDF1783F2807D9074BE201D21883
:1039A00000204023FFF7B0FED8E70020FFF798FE85
:1039B000D4E7C046881400200414002010B5040089
:1039C000FFF788F9002801D1002010BDFFF78AF920
:1039D0000028F9D1C8226243024B01309B181B79A1
:1039E0001840F2E788140020C82310B5434302486A
:1039F000181800F099FD10BD98140020F8B5C824DF
:103A0000802344431C4F103405003C195B029A424A
:103A100000D31A4A200092B200F008FE0600FFF719
:103A200059F9002801D13000F8BDFFF75BF90028F3
:103A3000F9D1C8236B43FF18FB78002BF3D020008B
:103A400000F090FD3F28EED90020F978FFF734FE12
:103A50000028E8D0200000F085FDF9783F2807D93C
:103A6000074BEA01D21800204023FFF74DFEDAE7AA
:103A70000020FFF735FED6E788140020FFFF000086
:103A800004140020F8B50400FFF724F9002801D140
:103A90000020F8BDFFF726F90028F9D1C8256543B5
:103AA0002E00134F2436F619300000F03DFD00289B
:103AB000EED07F190020B978FFF7FEFD0028E7D08F
:103AC0000C4DE401651929004022300000F0AEFDE4
:103AD000B978041E08D003002A000020FFF714FE66
:103AE0000028D5D02000D4E70020FFF7F9FDCFE76C
:103AF000881400204414002070B5C82444430C4BA3
:103B00000500E41880235B029A4200D3094A200092
:103B100092B200F051FE0600200000F005FD3F28A3
:103B200001D8300070BD2800FFF7ACFFF9E7C046B0
:103B3000AC140020FFFF0000C82310B54343024827
:103B4000181800F00FFD10BDAC140020F0B50025D2
:103B5000184C83B0C82200212000FEF7B5F8164BA0
:103B600021001D70FF236371E1235B02A36020002D
:103B700008234022A37338310095073B103000F032
:103B80009DFC2700012321002000260040227831DF
:103B90000093B837243000F091FCC0363800FCF7B1
:103BA00099FF3000FCF796FFE561276226636563A5
:103BB00003B0F0BD88140020841400200A4A116B61
:103BC000136A00290CD0002B07D00023D361536364
:103BD0001363002313620120704753631363FAE7F2
:103BE000002BF8D0D161F4E78814002070B50F4C99
:103BF000052200212000FEF767F80D4D2B78DA072B
:103C000007D50C4C9B070CD50121200000F0B0FE1D
:103C100070BD2000103000F08BFE2B78054C9B0708
:103C2000F2D4200000F084FEEEE7C04688140020A5
:103C300084140020AC140020F0B54B79060083B04A
:103C4000022B02D18B79022B03D00025280003B070
:103C5000F0BD204FBB78002BF7D18B7809253B7046
:103C60000C780C196378242B07D00CE02378E41827
:103C70005D196378ADB2242B05D19542F6D90020A9
:103C8000FFF766FEE2E71A00052B15D0042AF6D1ED
:103C900063790A2BF3D1104B2778019301330093FA
:103CA00030000223E119023AFFF79EFC0028CCD035
:103CB0000E35ED19ADB2E2E721003000FFF7E2FC6E
:103CC0000028C2D0A3787B7023785D19E41862784D
:103CD000ADB2DBE7881400208A140020F8B5602319
:103CE00014001278050013400020202B07D1304A21
:103CF0006379277916781B023B439E4200D0F8BDBA
:103D00006378222B1AD007D8202B34D0212BF6D160
:103D100001293ED00120F2E7232BF0D1012940D028
:103D20000329F7D1234B002BF4D0E178A3780902C3
:103D30000020194300E000BF0120E0E7012930D056
:103D40000329E7D101252E00A378E4780239240263
:103D50001C431471264024321000714000F008FE0C
:103D6000154B002BD6D06208002031002A4000E01D
:103D700000BF0120C3E701290BD00329CAD10F4B93
:103D8000002BC7D0083200201100FEF7ADFA012049
:103D9000B5E7072321002800094AFFF7F1FC0120BD
:103DA000ADE721002800FFF7D5FC0120A7E7C046BA
:103DB000881400200000000000000000E92200102C
:103DC00090140020F0B54F464646D646C0B5364D55
:103DD0008046EA780C001F008A423CD0AB788B42C8
:103DE00010D00020E0BCBA46B146A846F0BD2F4B2B
:103DF000002B04D02E4800F0ADFB002851D000204D
:103E0000FFF7A6FDAB78A34201D00120EAE7294BDA
:103E1000002B02D0002000E000BF0020FFF732FEA0
:103E20000028F2D1244C200000F07EFB0028ECD1C9
:103E3000002FEAD0BF06E8D1243C4046A178FFF726
:103E40003BFC0028E1D0002300224046A178FFF788
:103E50005BFC0120C6E79AB210239A46174EAA448B
:103E60003100504600F0A8FC154B002BBFD06B79F9
:103E7000FF2BBCD0002FBAD0F219914603E00136D7
:103E80004E45B4D06B7932789A42F8D1504600F062
:103E900061FB0028F3D15346103B597900E000BF85
:103EA000EDE700E000BFAAE7881400200000000052
:103EB0009814002000000000AC140020041400201E
:103EC000000000009322F0B5134C85B000212000C3
:103ED0009200FDF7F9FE23002000802640270F4DB9
:103EE0004D337600FF3329300295009300220023E2
:103EF000002103970196FF3000F0D4F94035201DD2
:103F00002834002301220021039702950196009492
:103F100000F0C8F905B0F0BD4C170020CC16002009
:103F200010B5054C200000F0F3F920002538FF38CB
:103F300000F0EEF9012010BD7418002070B5084C97
:103F4000002520003130FF30257000F0F1FC20000A
:103F50000C3000F0EDFC2A23FF33E554657170BD91
:103F60004C170020F8B557464546DE464E46E0B5AC
:103F70004B7980460F00FF2B5BD1404B99462A239B
:103F80004946FF33CB5C002B53D14E79002E50D1E4
:103F9000BB783C780B703B793C19002B46D09823BA
:103FA0005B004B449A460C234B449B46A51803E008
:103FB000AC423BD22378E4186378052BF8D1AC42AD
:103FC00034D221004046FFF75DFB002831D0A378B2
:103FD0000136F6B2DB09012B32D0504600F0A8FCC6
:103FE0002A234946A278FF33CA54637922791B02F7
:103FF0001343234A5B0594465B0D942163445A4264
:1040000053414A4602204900525C5B0082431343FD
:104010004A46535451464046083900F0E3F9002817
:1040200007D02378E4183B79B342C5D8E01B80B2AF
:1040300000E00020F0BCBB46B246A946A046F8BD51
:10404000584600F075FC5A46A3780C3A53716379D0
:1040500021791B020B430A495B058C465B0D6344C7
:1040600059424B41022011795B0081430B43594671
:1040700000200839137100F081F9D2E74C170020B5
:1040800000FEFFFFF8B52A2506001F48FF35455DF5
:104090001F008D4215D043798B4201D00020F8BD1E
:1040A0001A4B002B04D039040020090C00E000BF9B
:1040B000174C3000210000F061F900281DD00120CC
:1040C000EDE79A235B00C35A002B0DD1114B002B57
:1040D00004D000201049BAB200E000BF30000F4900
:1040E00000F080F90120DAE796235B00C1583130F7
:1040F000BAB2FF3000F060FBE8E73A002100300080
:1041000000F008F90120CAE74C1700200000000069
:104110005017002000000000CC160020741800206A
:1041200000B5030083B0002910D00020012B07D870
:104130000A78002A04D00C48C2540120012A01D078
:1041400003B000BD1800FEF7D5FDF9E701236A466C
:10415000002001A99380FEF7CDFD0028F0D00122B8
:10416000014B1A70ECE7C046A4150020037870B527
:10417000DB0704000E00DD0F002B17D103785B076F
:1041800001D5280070BD01213000494200F064FCD7
:104190002378DB07DD0F002B0AD123785B0708D4D7
:1041A0000422237801251343237002E00025E8E769
:1041B0000025300000F038FCE3E7C04670B50C0085
:1041C000012106004942200000F046FC33785B07DD
:1041D000DD0F002B04DB200000F026FC280070BD62
:1041E0003378DB0704D40422337893433370F2E747
:1041F0000025F0E7437902791B021343C2785B057F
:1042000092075B0D920F022A1DD0032A0CD00020CA
:10421000012A08D102394A425141124A9446614466
:1042200099424041C0B2704702394A1E91410E4A3C
:10423000494211408022D2009446002061449942B4
:104240004041C0B2EFE7022905D0002040229A4247
:104250004041C0B2E7E7054A981843425841C0B20E
:10426000E1E7C046FF03000040FCFFFF00FEFFFF48
:104270008A1870B5914207D27F264C78052C04D05D
:104280000C7809198A42F8D870BD34008D782C401A
:1042900064000419ED0963550C7809198A42ECD8B9
:1042A000F2E7C046F0B5C64600B582B0150008AAD0
:1042B00040CA040017886A46928D012090460A0081
:1042C0002178024081432000114321703A0000937D
:1042D00031000123083000F0F1F8002E01D0002F4A
:1042E00008D10A9B012063604346638002B080BC12
:1042F000B846F0BD26001C363000FCF7EBFB00236F
:10430000002D01D0330000266361A661E9E7C046B5
:1043100001207047F8B502240B7807001C40634267
:104320005C41144B64421C40134B08009C4608300F
:104330000D001600644400F0F7F8002807D1002EA5
:1043400005D0344203D101242B781C4201D0002037
:10435000F8BD38006978FFF7AFF90028F7D02B785F
:104360001C42F4D10023002238006978FFF7CCF911
:10437000EEE7C04640FEFFFFFF010000F8B50D006C
:104380000835060028000C0000F0CEF8002803D005
:10439000012723781F4201D00020F8BD300061784A
:1043A000FFF78AF90028F7D028006288616800F0DA
:1043B0003DF9237805001F4000280BD0002FEBD1DA
:1043C0000300626830006178FFF79EF90028E3D0AF
:1043D0002800E2E7002FDFD130006178FFF780F995
:1043E000DAE7C046F8B5CE46474680B58A8906006A
:1043F0000C000B78002A07D101251D4240D0002077
:10440000C0BCB946B046F8BD9B0733D42A4B402503
:10441000994627000837380000F0A4F88542EED806
:104420000122237890461A42E9D130006178FFF7E3
:1044300043F90028E3D0380000F094F8424623788E
:104440001A40854231D8002AD9D14A4663880240B1
:104450001D1C934200D9151CADB200226178002DBD
:1044600000D062682B003000FFF74EF90028C6D05C
:104470002800C5E7FE2380251B029946AD00C8E74A
:104480004978FFF719F90028B9D023781D42B6D131
:10449000638800226178002B00D062683000FFF74B
:1044A00033F90028ABD06088AAE7002AA7D13000F2
:1044B0006178FFF715F9A2E7C0FF0000F0B5C64626
:1044C00000B504006846057E8020884617001E005F
:1044D0000002824226D8E068002803D00121494228
:1044E00000F0BAFA2069002803D00121494200F007
:1044F000B3FA4346236073045B0CED031D430023B2
:10450000E0686381A780E5802381002801D000F066
:104510008BFA2069002801D000F086FA012080BCC7
:10452000B846F0BD0020FAE710B5048941898288B9
:10453000A3B288B28C4207D31B1A9BB2101C9A42BA
:1045400000D9181C80B210BD5100091A5B189BB22B
:10455000F4E7C04603894089181A43425841C0B263
:104560007047C04610B5048941898288A3B288B2D9
:104570008C4207D31B1A9BB200209A4201D9D21A4F
:1045800090B210BD5100091A5B189BB2F4E7C04607
:1045900070B5040000690E00002803D001214942D3
:1045A00000F05AFA25896089A288A9B283B28542AF
:1045B00032D3CD1AADB2002D28D0AA4208D29142F2
:1045C0002FD3891A8BB263819A4203D89B1A9BB26C
:1045D0009A42FBD9E28821685204520C53433000BE
:1045E000C918FDF777FB63890125591C89B2A28898
:1045F0008B420DD900215200891A89B2206961814C
:10460000002801D000F010FA280070BD618989B23D
:1046100052009142F2DBEFE75500ED1A4D19ADB2B1
:10462000C9E789188BB26381CEE7C046F0B546462C
:104630004F46D646C0B50600006989469046002818
:1046400003D00121494200F007FA31897289B58807
:104650008BB294B2914254D31F1BBFB2002F4AD0E9
:10466000BD4205D2AB4251D25B199CB22F0074817E
:104670004346B8453DD89FB2A54203D8641BA4B2B7
:10468000A542FBD9F28831685204520C904662432D
:104690002B1B9BB2891842469F4225D953439BB29C
:1046A0001A0048469A46FDF715FB434648467D1BCF
:1046B00064195C4331685044A2B2FDF70BFB718969
:1046C000B588CB199BB26A00994216D99B1A9BB246
:1046D00030697381002801D000F0A6F93800E0BCF1
:1046E000BA46B146A846F0BD48467A43FDF7F2FA0D
:1046F000E5E73B1CBFE773899BB26A009342E7DBA7
:10470000E4E76F003F1BDF19BFB2A7E75B1B9CB25A
:10471000ACE7C046F8B50400C0680E00002803D01E
:104720000121494200F098F9258920896189A288F0
:10473000ADB283B28FB2884229D3DB1B9BB29A42BF
:1047400009D8E779FF0906D1E068002801D000F018
:104750006BF93800F8BD2B0095421DD39B1A9BB214
:104760009342FBD2E28820685204520C534331003A
:10477000C018FDF7AFFA6B1C9BB2A2889D4217D9F7
:10478000002352009B1A9BB201272381DCE75100D2
:10479000C91B5B189BB2D2E7E28820685204520C16
:1047A00053433100C018FDF795FA0135A288ABB22A
:1047B00052009342E8DBE5E7F0B54E465746DE4649
:1047C0004546E0B589460600170083B0002A67D049
:1047D000C068002803D00121494200F03DF9338927
:1047E000F2799BB298467389B5889BB2D20940D1C1
:1047F00098455ED26A00D31A43449BB2AB425DD265
:10480000EB1A1A1C9BB2BB4200D93A1C97B27B1B15
:104810009BB20193F3885B045B0C9A464346DB1919
:104820009BB29B464446A84503D3641BA4B2AC424A
:10483000FBD25346634330682D1BADB2C018BD4256
:104840004BD3524649467A43FDF744FAB3885B009E
:10485000D84501D89B4503DB5A46D31A9BB29B46E9
:104860005B463D003381F06800281AD000F0DCF888
:1048700017E0F2885204520C9246AF4220D298457B
:104880004DD34246D21A92B26900781B80B2D21937
:1048900001908A4233DA4346FB189BB29B46C1E73C
:1048A0000025280003B0F0BCBB46B246A946A0468E
:1048B000F0BD4246D31A9BB2AB42A1D30025D2E74A
:1048C000002DD0D07F1B574398465A19002392B22F
:1048D000B94493462F000193A4E753465D43ADB21C
:1048E0002A004946FDF7F6F9019B2900E2185346D4
:1048F0005A43306892B24944FDF7ECF9A6E75A19D9
:1049000092B29346D21B92B2904693420CD9434640
:10491000591A8BB29846FB189BB29B4682E76900F6
:10492000CA1A424492B2B0E7914200DD7AE7EEE75C
:1049300010B50400C068002803D00121494200F0EE
:104940008BF82069002803D00121494200F084F847
:104950000023E06863812381002801D000F064F81F
:104960002069002801D000F05FF8012010BDC0468A
:1049700070B50400C0680D00002803D00121494231
:1049800000F06AF82069002803D00121494200F0B4
:1049900063F87F21E379ED011940E0682943E17173
:1049A000002801D000F040F82069002801D000F074
:1049B0003BF8012070BDC04610B583070AD0030044
:1049C000032102E001330B4205D01A78002AF9D105
:1049D000181A10BD030019680C4A0D4C8A188A4336
:1049E00022420FD15968094A04338A188A43224265
:1049F00008D15968054A04338A188A432242F1D003
:104A000000E001331A78002AFBD1E1E7FFFEFEFE49
:104A100080808080F8B5C04601B40248844601BC5D
:104A2000604700BFC102002001B40248844601BCB7
:104A3000604700BF2502002001B40248844601BC43
:104A4000604700BF110F002001B40248844601BC3A
:104A5000604700BFC100002001B40248844601BC89
:104A6000604700BF9901002001B40248844601BCA0
:104A7000604700BFF50B002001B40248844601BC2A
:104A8000604700BF0101002001B40248844601BC18
:104A9000604700BF850C002001B40248844601BC79
:104AA000604700BF350C002001B40248844601BCB9
:104AB000604700BFCD0B002001B40248844601BC12
:104AC000604700BFF1030020511900107D1900104C
:104AD000C91A0010B91C0010251B0010291C001059
:104AE000F119001099190010B9190010CD19001012
:104AF000850A0010D5190010510E00101919001068
:0C4B0000E5040010B1020010AD27001009
:104B0C005468697320697320612074657374206222
:104B1C00696E6172792E0000000000004F6E2D62EC
:104B2C006F617264204C4544000000000A2A2A2A56
:104B3C002050414E4943202A2A2A0A000A0000002C
:104B4C004E6F207370696E6C6F636B73206172654E
:104B5C0020617661696C61626C6500004E6F207536
:104B6C0073657220495251732061726520617661C0
:104B7C00696C61626C650000486172647761726592
:104B8C0020616C61726D20256420616C72656164BA
:104B9C007920636C61696D65640000004861726422
:104BAC00206173736572740052656C656173650086
:104BBC00626F6F74325F77323571303830000000BD
:104BCC00322E312E310000007069636F000000003E
:104BDC006D61696E00000000417072203135203229
:104BEC00303235005541525420737464696E0000A4
:104BFC0055415254207374646F757400554152546E
:104C0C0020737464696E202F207374646F75740044
:104C1C0055534220737464696E202F207374646F33
:104C2C0075740000526173706265727279205069FC
:104C3C00000000005069636F00000000426F617259
:104C4C006420434443000000526573657400000007
:104C5C00556E68616E646C656420495251203078E1
:104C6C0025780A0065702025303258207761732032
:104C7C00616C726561647920617661696C61626CEA
:104C8C006500000043616E277420636F6E74696E5B
:104C9C0075652078666572206F6E20696E6163742D
:104CAC006976652065702025303258000600525018
:104CBC00197CA0B60C4B00100900525000000002E9
:104CCC00284B001006005250D3F07542B44B001024
:104CDC0006005250E182887FBC4B001006005250F7
:104CEC00ABB36053CC4B001006005250BBFF3CB62C
:104CFC00D44B001006005250861C0302DC4B0010F3
:104D0C00060052505422A29DE44B00100500525054
:104D1C00DE65F468905F00100D0A0000060052502A
:104D2C0053B4F4A1084C00100800525012000000BB
:104D3C0008005250921000000000000011220010D8
:104D4C000000000015220010212200104D2200103E
:104D5C0049220010000000000A00000000000306B9
:104D6C00A6000800020002009C0014000300574932
:104D7C004E5553420000000000000000000080006F
:104D8C0004000100280044006500760069006300FF
:104D9C00650049006E0074006500720066006100D9
:104DAC0063006500470055004900440000004E00B8
:104DBC007B00620063003700330039003800630069
:104DCC0031002D0037003300630064002D003400E7
:104DDC006300620037002D00390038006200380093
:104DEC002D0039003100330061003800660063008B
:104DFC00610037006200660036007D000000000094
:104E0C00050F2100011C100500DF60DDD88945C7A6
:104E1C004C9CD2659D9E648A9F00000306A60001EF
:104E2C00000000000600525053B4F4A11C4C0010BA
:104E3C0000000000304C0010404C0010681F002097
:104E4C00484C0010544C001009025400030100801F
:104E5C007D080B000202020000090400000102029E
:104E6C00000405240020010524010001042402068D
:104E7C000524060001070581030800100904010040
:104E8C00020A00000007050202400000070582022A
:104E9C004000000904020000FF000105120110028D
:104EAC00EF0201408A2E0A000001010203010000FA
:104EBC00142E00107C2F0010CC2F0010542F00103B
:104ECC00662F0010442F0010B42E0010602E00101E
:104EDC00542E0010363300101C330010EC30001030
:104EEC0056330010EC30001004330010F032001078
:104EFC00EC300010DC320010E2310010EC3000100D
:104F0C00C2350010B4350010A8350010EC3000107C
:104F1C00EC30001092350010B4350010EC3000105D
:104F2C00EC300010EC300010EC300010EC300010C5
:104F3C00EC300010EC30001048350010520D002001
:104F4C00520D00209C0D0020BC0D0020000E0020F6
:104F5C00120E0020480D0020000000004D3B0010F8
:104F6C00BD3B0010ED3B0010393C0010DD3C001047
:104F7C00C53D00100000000000000000C53E001000
:104F8C00213F00103D3F0010653F0010A92200108A
:084F9C00854000100000000038
:104FA400C44C0010B84C0010D04C0010DC4C001065
:104FB400E84C0010F44C0010004D00100C4D001093
:104FC400184D00103C4D0010344D0010284D0010B9
:044FD400304E00104B
:104FD80003000068EFF3108C72B60268002AFCD058
:104FE800BFF35F8F04229A56002A0BDB002900D0FA
:104FF8000A6000201B68BFF35F8F00221A608CF3E1
:1050080010887047D0221206126801201A71F1E741
:10501800F0B5C646150000B504001E000268EFF39F
:10502800108172B61368002BFCD0BFF35F8F042386
:10503800E3562268002B2BDBBFF35F8F0020106044
:1050480081F31088D02212061278002752B29046B7
:105058009A420ED1002080BCB846F0BDBFF35F8FE6
:10506800176081F310882800310000F0EDFE002859
:10507800F0D12268EFF3108172B61368002BFCD0D0
:10508800BFF35F8F237922687F2BE7D9434602E07D
:10509800D0231B061B682371BFF35F8F00231360A7
:1050A80081F310880120D6E7F0B5C64600B50D009B
:1050B800040000F0E1FEFA2206000F000023280099
:1050C8000021920000F0B8FE36184F41002F02DA96
:1050D8000126174F7642D0231B061B6800259846E9
:1050E8000AE0BFF35F8F156081F310883000390044
:1050F80000F0AAFE002818D12268EFF3108172B6DA
:105108001368002BFCD0BFF35F8F237922687F2BB5
:10511800E7D943462371BFF35F8F0023136081F300
:105128001088012080BCB846F0BD0020FAE7C046D0
:10513800FFFFFF7F0268EFF3108172B61368002B40
:10514800FCD0BFF35F8FFF2303710368BFF35F8F4A
:1051580000221A6081F3108840BF704710B5084CD0
:105168002378002B0AD18023064807495B051A6873
:10517800C25004338B42FAD10123237010BDC046BC
:105188007C1F0020981900100001001010B5014B79
:10519800984710BD99190020034B1A68C0239B003B
:1051A8009343024A136070470C8001400C90014001
:1051B800054B1A6880239B005340C022920013407D
:1051C800024A13607047C0460C8001400C900140B1
:1051D8000023F0B5DE4657464E4645469A46E0B5AA
:1051E80083B001900E00988A42491B8B140098479F
:1051F800534681464049988A1B8B984753463F49F6
:105208000500988A1B8B98478046FFF7A7FFC84779
:10521800A847FFF7CDFF251E22D00823C0219C46B2
:105228000220490562468B6A1A4018423CD0631B2B
:10523800002D2CD1002A11D1002C11D0C0235B05E0
:105248009B4602239A46063399465B464A4657468A
:105258009B6A1A401F423FD0002AF6D0002C2DD15D
:10526800FFF79AFFC047FFF791FF03B0F0BCBB46BA
:10527800B246A946A046F0BD002C2FD1C022520547
:10528800926A914608224F463A40BF072DD50D2B0A
:105298001BD9002AF0D1C0225205926A91460822F1
:1052A8004F463A40BF07F2D4002A04D12B002343CB
:1052B800002BB7D1D4E72B00002CF9D00B6E013CA2
:1052C8003370230001362B43F2E7019F013D3B7801
:1052D80001370B660197E7E70025E5E7C0235B0583
:1052E8001B6E013C337001369CE72B00002ADFD18E
:1052F800DCE7C04649460000455800004643000028
:105308000022154B10B59A60DA601A615A619A61E9
:10531800DA611A625A629A62DA621A635A639A63A3
:10532800DA631A645A649A64DA641A655A659A6583
:10533800DA651A665A669A66DA661A675A679A6763
:10534800DA67F03292000021044800F0A5FD044B12
:10535800044A1A6010BDC046000010504C1B0020C3
:10536800141F002080011050F0B54E464546DE4619
:105378005746E0B5214B00249E6D012585B0002ECF
:1053880022D01F4B9A46012399461E4B984601E0AE
:10539800202C19D02A00230001342F003240E4B217
:1053A8006D00002AF4D0524697654A465B085B00B8
:1053B80022409B185B01434418009B4600F01EFCEA
:1053C800002808D1BE43E3D105B0F0BCBB46B246C5
:1053D800A946A046F0BD5B46E0219A78DB8A01A881
:1053E80083600023C900018001210271437100F02C
:1053F80025FC584600F0A0FBE4E7C0460000115029
:10540800003011500C1B00209823F0B5C646C84A3E
:1054180000B5D55880232E009B02102484B01E406E
:105428001D4274D0C34BC44C9A6AC44B00261A6000
:105438003B23E35C022B00D14FE17B23E35C022B8F
:1054480000D1F3E0BB23E35C022B00D1FAE0FB239D
:10545800E35C022B00D101E13C23FF33E35C022B28
:1054680000D12DE17C23FF33E35C022B00D10EE158
:10547800BC23FF33E35C022B00D13FE1FC23FF3365
:10548800E35C022B00D1F5E0AD4BE35C022B00D1CD
:1054980074E1AC4BE35C022B00D105E1AA4BE35C61
:1054A800022B00D175E1A94BE35C022B00D132E15C
:1054B800A74BE35C022B00D1A0E1A64BE35C022BD7
:1054C80000D171E1A44BE35C022B00D1A1E1A34B15
:1054D800E35C022B00D17FE1002E08D1A04B1B78A2
:1054E800002B04D180219F4A90338902D150C022D9
:1054F80069468F4B92009B6C80265B058A805B0D0A
:10550800012101A8029300F099FB974CB602EB0623
:1055180000D57FE080235B021D4231D01E4301236A
:1055280002249846844FBB7E002B14D000F0ACFCBC
:10553800012800D972E0C02200213800920100F051
:1055480001FB380000F0F8FA00F09EFC012802D9AF
:10555800844B5C661C664346FB702037012C22D1C5
:10556800C0236A46DB009380804A02AB03CA03C3A8
:10557800012101A800F062FB80227A4B92021A6591
:1055880080235B011D4210D18023DB011D4223D102
:1055980080231B021D422FD1AE4200D0C0E104B0CF
:1055A80080BCB846F0BD0124BDE700241E43604B13
:1055B8001C60FFF7A5FE80236A465B009380147287
:1055C800012101A800F03AFB8022664B12031A65FC
:1055D8008023DB011D42DBD01E4380236A46DB00AB
:1055E8009380012101A800F029FB10225D4B1A6568
:1055F80080231B021D42CFD01E43A0236A46DB0036
:105608009380012101A800F019FB8022554B12015B
:105618001A65C1E7FFF7A8FE26007BE7544B444A0A
:105628001C66536E2340A342FBD184E77833E75CC2
:10563800002F00D106E70233E25C002A00D00DE11A
:105648003E00FFE6B833E75C002F00D1FFE60233E7
:10565800E25C002A00D0F9E03E00F8E6F833E75CA7
:10566800002F00D1F8E60233E25C002A00D041E1C5
:105678003E00F1E6F933FF33E75C002F00D103E782
:105688000233E25C002A00D02BE13E00FCE67933CD
:10569800FF33E75C002F00D1EAE60233E25C002A20
:1056A80000D015E13E00E3E6324BE75C002F00D165
:1056B800F4E60233E25C002A00D001E13E00EDE6A8
:1056C8003933FF33E75C002F00D1CBE60233E25CCD
:1056D800002A00D0EBE03E00C4E63833E65C002E3A
:1056E80000D1AAE60233E25C002A00D1A5E6200038
:1056F80000222030E25400F04DFA9EE6B933FF3321
:10570800E75C002F00D1B9E60233E25C002A00D042
:10571800C4E03E00B2E6184BE75C002F00D1C7E6B4
:105728000233E25C002A00D0B0E03E00C0E6C0468A
:1057380000001150004005400C1B0020041B0020F5
:105748003B0200007B020000BB020000FB020000DD
:105758003B0300007B030000BB030000FB030000C9
:105768007A1F002000301150100002000000105075
:10577800002011507A020000FA0200006B4BE75C2F
:10578800002F00D185E60233E25C002A76D13E0084
:105798007FE6674BE75C002F00D184E60233E25CCA
:1057A800002A63D13E007EE6624BE75C002F00D101
:1057B80088E60233E25C002A00D0A3E05E4BE35C9B
:1057C800022B30D15D4BE35C002B27D15C4BE35CB3
:1057D800022B00D08BE63E005A4BE35C002B00D135
:1057E8007AE6FF239B00E25C002A00D17FE60022D4
:1057F800E2541C3BE01800F0CDF978E6524BE75C28
:10580800002F00D159E60233E25C002A16D13E008F
:1058180053E64A4BE35C002B00D158E6EF239B008C
:10582800E25C002A75D1464BE35C022B00D05EE6B1
:10583800444BE35C002B00D159E6D2E70022E25446
:105848001C3BE01800F0A6F93E0036E620000022D6
:10585800A030E2543E0000F09DF9F8E52000002257
:105868006030E2543E0000F095F9EBE50022E25486
:105878001C3BE01800F08EF93E0014E60022E254CA
:105888001C3BE01800F086F93E0002E60022E254D4
:105898001C3BE01800F07EF93E0009E620000022DB
:1058A800A130FF30E2543E0000F074F9E6E5200034
:1058B80000222130FF30E2543E0000F06BF9D1E5C0
:1058C8000022E2541C3BE01800F064F93E00E5E5D4
:1058D800200000226130FF30E2543E0000F05AF907
:1058E800C6E520000022E130FF30E2543E0000F01F
:1058F80051F9C9E520000022E030E2543E0000F0F2
:1059080049F9A9E50022E2541C3BE01800F042F9ED
:1059180054E70022E2541C3BE01800F03BF982E710
:1059280031000A48694000F07FFAC0463A02000098
:10593800BA0200007A030000BB030000BA030000AB
:10594800FB030000FA0300003A0300005C4C00105F
:10595800F0B5C64600B50200838A008B8C46011C50
:10596800984200D9191CD47880252000461EB041E1
:1059780089B2ED000D434003284301256C405B1AB2
:10598800D47054789BB29382002C31D16446D56888
:10599800A4014E1E2D19B0461469002923D0062EE5
:1059A80032D92B0023439B072ED1631CEB1A022B01
:1059B8002AD900238F08BF00E658EE5004339F42CF
:1059C800FAD14346ED19DB1BE419B94209D0267810
:1059D8002E70002B05D066786E70012B01D0A3784D
:1059E800AB701469938A6418146180221202104300
:1059F800002B02D18023DB0118436346002B00D023
:105A0800000480BCB846F0BD0023E65CEE540133C8
:105A18009942FAD1E5E7C0468368F0B51A680400F0
:105A2800002900D0120C63789205900D002B08D144
:105A3800E38AC318E382238B834201D90023A3821C
:105A4800F0BDE368890125695E18471E002822D049
:105A5800062F26D901315B18EB1A022B21D92B000E
:105A680033439B071DD10023120E9200F158E950D1
:105A780004339A42FAD1BF1AAD18B618904209D029
:105A880032782A70002F05D072786A70012F01D001
:105A9800B278AA702569E38A2D18C318E3822561B4
:105AA800C9E70022B35CAB5401329042FAD12569B0
:105AB800F1E7C04610B50400836800211B68FFF7B2
:105AC800ABFF63681B685B0002D5238B834200D061
